:100000008A11FB2F00308A000408840A820700341A
:100010000034103418341C341E341F34313473341B
:100020007434203453345434523449344E344734C5
:1000300020343034783430343134213400343234A4
:100040006E346434203453345434523449344E348E
:10005000473420343034783430343234213400346E
:100AC6008A1105268A11662D0730831603139F00A7
:100AD6008501831203138501080083120313AB00FB
:100AE600FE30AA002A0885052B088A11242608004C
:100AF6008312031385140030A3000030A2000030D7
:100B0600A1000130A0008A118C26FD308312031348
:100B1600A80028088505080083120313AA000514F7
:100B26002A088A1124268A11003083120313A3008F
:100B36000030A2000030A1000130A0008A118C26EE
:100B46000800FE3083120313AA002A088505013027
:100B56008A1124268A11003083120313A300003061
:100B6600A2000030A100C830A0008A118C2608001F
:100B7600FE3083120313AA002A08850502308A1163
:100B860024268A11003083120313A3000030A2002A
:100B96000030A100C830A0008A118C2608008A11F6
:100BA60067258A1128308A1127278A110C308A1165
:100BB60070258A1106308A1170258A118A11A4259A
:100BC6008A118A11BB258A118A11682708008312A7
:100BD6000313AB00FE30AA002A088505FA2D103053
:100BE6008A112426080014308A112426080083124C
:100BF60003132B083C3A0319F22D023A0319F62D7A
:100C0600042E08008A1167258A118A11D2258A11B5
:100C16008A11A4258A1183120313AA0101308A11AD
:100C2600EA268A1107308A11AB278A118312031329
:100C3600AA0102308A11EA268A1118308A11AB27D6
:100C4600080083120313A90029088A1144268A1171
:100C56008A117B258A118312031329088A116826B3
:100C66008A118A117B258A11003083120313A3008F
:100C76000030A2000030A1000530A0008A118C26A9
:100C8600080083120313A100A11F4B2E85164F2EB9
:100C9600DF30A00020088505211F532E0516572E8C
:100CA600EF30A00020088505A11E5B2E85155F2E5E
:100CB600F730A00020088505211E632E05150800C3
:100CC600FB30A00020088505080083120313A1004D
:100CD600A11D6F2E8516732EDF30A0002008850516
:100CE600211D772E05167B2EEF30A00020088505E6
:100CF600A11C7F2E8515832EF730A00020088505C0
:100D0600211C872E05150800FB30A000200885054C
:100D16000800043083120313A4000310A00DA10DD4
:100D2600A20DA30DA40B902E230822042104200457
:100D3600031908000130A4000030A5000030A60009
:100D46000030A7002408A0022508031C250FAC2E9E
:100D5600AD2EA1022608031C260FB22EB32EA20228
:100D66002708031C270FB82E972EA302972E0F30A5
:100D760083120313AD002D08AA0002308A11EA2659
:100D86008A1104308A1170258A1183120313AE0169
:100D960010302E020318DD2E00308A118F258A119D
:100DA600013083120313AD002D08AE0710302E025A
:100DB600031CCF2EB301B40106308A1170258A11A7
:100DC60083120313AA0101308A11EA26080083124E
:100DD6000313AC00FE30AB002B088505132F2A0841
:100DE60080388A1124260800831203132A08C03883
:100DF6008A1124260800831203132A0890388A11C0
:100E060024260800831203132A08D0388A112426C0
:100E16000800831203132A0840388A112426080082
:100E2600831203132C08013A0319F22E033A03190D
:100E3600F72E013A0319FE2E073A0319052F013A38
:100E460003190C2F262F080083120313AA00FE3065
:100E5600A900290885052A088A1144268A118A11BB
:100E66007B258A11003083120313A3000030A200F1
:100E76000030A1000530A0008A118C268A118A1143
:100E86007B258A11003083120313A3000030A200D1
:100E96000030A1000530A0008A118C268A11831229
:100EA60003132A088A1168268A118A117B258A115A
:100EB600003083120313A3000030A2000030A1000B
:100EC6000530A0008A118C26080083120313B20194
:100ED600063032020318A82F3208AF000230031082
:100EE600AF0DFF3E031D722F03102F0DB00030080B
:100EF600AA0005308A11EA268A1183120313B1016A
:100F0600083031020318A02F083031020318922F3F
:100F16003208013E84008A1102208A11932F003084
:100F26008A118F258A11013083120313AF002F080F
:100F3600B10708303102031C872F0130AF002F089C
:100F4600B20706303202031C6F2F8A11BA26080038
:100F560083120313AF002F0884008A1102208A111E
:100F6600003A031908002F0884008A1102208A110A
:100F76000A3A031DC42FAA0102308A11EA268A11F1
:100F8600F42F831203132F0884008A1102208A117A
:100F96000D3A031DD22F8A11BB258A11F42F831215
:100FA60003132F0884008A1102208A11093A031DAF
:100FB600EC2FAE0104302E020318F42F3E308A11B6
:100FC600EA258A11013083120313AD002D08AE07FE
:100FD600DD2F2F0884008A1102208A118A118F259D
:100FE6008A11013083120313AD002D08AF07AE2F0F
:0A0FF600B301B40183018A11632DD9
:02400E00F2FFBF
:00000001FF
